{
  "contractName": "metaBnb",
  "abi": [
    {
      "inputs": [],
      "stateMutability": "nonpayable",
      "type": "constructor"
    },
    {
      "anonymous": false,
      "inputs": [
        {
          "indexed": true,
          "internalType": "address",
          "name": "owner",
          "type": "address"
        },
        {
          "indexed": true,
          "internalType": "address",
          "name": "operator",
          "type": "address"
        },
        {
          "indexed": true,
          "internalType": "uint256",
          "name": "tokenId",
          "type": "uint256"
        }
      ],
      "name": "_allApproval",
      "type": "event"
    },
    {
      "anonymous": false,
      "inputs": [
        {
          "indexed": true,
          "internalType": "address",
          "name": "owner",
          "type": "address"
        },
        {
          "indexed": true,
          "internalType": "address",
          "name": "spender",
          "type": "address"
        },
        {
          "indexed": true,
          "internalType": "uint256",
          "name": "tokenId",
          "type": "uint256"
        }
      ],
      "name": "_approve",
      "type": "event"
    },
    {
      "anonymous": false,
      "inputs": [
        {
          "indexed": true,
          "internalType": "address",
          "name": "from",
          "type": "address"
        },
        {
          "indexed": true,
          "internalType": "address",
          "name": "to",
          "type": "address"
        },
        {
          "indexed": true,
          "internalType": "uint256",
          "name": "tokenId",
          "type": "uint256"
        }
      ],
      "name": "transfer",
      "type": "event"
    },
    {
      "inputs": [
        {
          "internalType": "address",
          "name": "",
          "type": "address"
        },
        {
          "internalType": "address",
          "name": "",
          "type": "address"
        }
      ],
      "name": "_approvalForAll",
      "outputs": [
        {
          "internalType": "uint256",
          "name": "",
          "type": "uint256"
        }
      ],
      "stateMutability": "view",
      "type": "function",
      "constant": true
    },
    {
      "inputs": [
        {
          "internalType": "uint256",
          "name": "",
          "type": "uint256"
        }
      ],
      "name": "_approvals",
      "outputs": [
        {
          "internalType": "address",
          "name": "",
          "type": "address"
        }
      ],
      "stateMutability": "view",
      "type": "function",
      "constant": true
    },
    {
      "inputs": [
        {
          "internalType": "address",
          "name": "",
          "type": "address"
        }
      ],
      "name": "_balanceOf",
      "outputs": [
        {
          "internalType": "uint256",
          "name": "",
          "type": "uint256"
        }
      ],
      "stateMutability": "view",
      "type": "function",
      "constant": true
    },
    {
      "inputs": [
        {
          "internalType": "uint256",
          "name": "",
          "type": "uint256"
        }
      ],
      "name": "_ownerOf",
      "outputs": [
        {
          "internalType": "address",
          "name": "",
          "type": "address"
        }
      ],
      "stateMutability": "view",
      "type": "function",
      "constant": true
    },
    {
      "inputs": [
        {
          "internalType": "address",
          "name": "",
          "type": "address"
        }
      ],
      "name": "approvals",
      "outputs": [
        {
          "internalType": "bool",
          "name": "",
          "type": "bool"
        }
      ],
      "stateMutability": "view",
      "type": "function",
      "constant": true
    },
    {
      "inputs": [
        {
          "internalType": "address",
          "name": "",
          "type": "address"
        }
      ],
      "name": "coOwner",
      "outputs": [
        {
          "internalType": "bool",
          "name": "",
          "type": "bool"
        }
      ],
      "stateMutability": "view",
      "type": "function",
      "constant": true
    },
    {
      "inputs": [
        {
          "internalType": "address",
          "name": "",
          "type": "address"
        }
      ],
      "name": "durationRecord",
      "outputs": [
        {
          "internalType": "uint256",
          "name": "",
          "type": "uint256"
        }
      ],
      "stateMutability": "view",
      "type": "function",
      "constant": true
    },
    {
      "inputs": [
        {
          "internalType": "address",
          "name": "",
          "type": "address"
        },
        {
          "internalType": "address",
          "name": "",
          "type": "address"
        }
      ],
      "name": "leaseAgreementAmount",
      "outputs": [
        {
          "internalType": "uint256",
          "name": "",
          "type": "uint256"
        }
      ],
      "stateMutability": "view",
      "type": "function",
      "constant": true
    },
    {
      "inputs": [
        {
          "internalType": "address",
          "name": "",
          "type": "address"
        },
        {
          "internalType": "address",
          "name": "",
          "type": "address"
        }
      ],
      "name": "leaseAgreementDuration",
      "outputs": [
        {
          "internalType": "uint256",
          "name": "",
          "type": "uint256"
        }
      ],
      "stateMutability": "view",
      "type": "function",
      "constant": true
    },
    {
      "inputs": [
        {
          "internalType": "address",
          "name": "",
          "type": "address"
        },
        {
          "internalType": "address",
          "name": "",
          "type": "address"
        }
      ],
      "name": "leaseAgreementLedger",
      "outputs": [
        {
          "internalType": "bool",
          "name": "",
          "type": "bool"
        }
      ],
      "stateMutability": "view",
      "type": "function",
      "constant": true
    },
    {
      "inputs": [
        {
          "internalType": "address",
          "name": "",
          "type": "address"
        },
        {
          "internalType": "address",
          "name": "",
          "type": "address"
        }
      ],
      "name": "partnerAmount",
      "outputs": [
        {
          "internalType": "uint256",
          "name": "",
          "type": "uint256"
        }
      ],
      "stateMutability": "view",
      "type": "function",
      "constant": true
    },
    {
      "inputs": [
        {
          "internalType": "address",
          "name": "",
          "type": "address"
        },
        {
          "internalType": "address",
          "name": "",
          "type": "address"
        }
      ],
      "name": "partners",
      "outputs": [
        {
          "internalType": "bool",
          "name": "",
          "type": "bool"
        }
      ],
      "stateMutability": "view",
      "type": "function",
      "constant": true
    },
    {
      "inputs": [
        {
          "internalType": "address",
          "name": "",
          "type": "address"
        }
      ],
      "name": "rentAmountsLedger",
      "outputs": [
        {
          "internalType": "uint256",
          "name": "",
          "type": "uint256"
        }
      ],
      "stateMutability": "view",
      "type": "function",
      "constant": true
    },
    {
      "inputs": [
        {
          "internalType": "address",
          "name": "",
          "type": "address"
        }
      ],
      "name": "rentDueDate",
      "outputs": [
        {
          "internalType": "uint256",
          "name": "",
          "type": "uint256"
        }
      ],
      "stateMutability": "view",
      "type": "function",
      "constant": true
    },
    {
      "inputs": [
        {
          "internalType": "address",
          "name": "",
          "type": "address"
        },
        {
          "internalType": "address",
          "name": "",
          "type": "address"
        }
      ],
      "name": "rentLedger",
      "outputs": [
        {
          "internalType": "bool",
          "name": "",
          "type": "bool"
        }
      ],
      "stateMutability": "view",
      "type": "function",
      "constant": true
    },
    {
      "inputs": [
        {
          "internalType": "uint256",
          "name": "",
          "type": "uint256"
        }
      ],
      "name": "tokenState",
      "outputs": [
        {
          "internalType": "bool",
          "name": "",
          "type": "bool"
        }
      ],
      "stateMutability": "view",
      "type": "function",
      "constant": true
    },
    {
      "inputs": [],
      "name": "uniqueIds",
      "outputs": [
        {
          "internalType": "uint256",
          "name": "",
          "type": "uint256"
        }
      ],
      "stateMutability": "view",
      "type": "function",
      "constant": true
    },
    {
      "inputs": [
        {
          "internalType": "address",
          "name": "owner",
          "type": "address"
        }
      ],
      "name": "balanceOf",
      "outputs": [
        {
          "internalType": "uint256",
          "name": "",
          "type": "uint256"
        }
      ],
      "stateMutability": "view",
      "type": "function",
      "constant": true
    },
    {
      "inputs": [
        {
          "internalType": "address",
          "name": "buyer",
          "type": "address"
        },
        {
          "internalType": "uint256",
          "name": "price",
          "type": "uint256"
        },
        {
          "internalType": "uint256",
          "name": "amountToBuy",
          "type": "uint256"
        }
      ],
      "name": "buyMetaHouse",
      "outputs": [],
      "stateMutability": "payable",
      "type": "function",
      "payable": true
    },
    {
      "inputs": [
        {
          "internalType": "address",
          "name": "seller",
          "type": "address"
        },
        {
          "internalType": "address",
          "name": "newOwner",
          "type": "address"
        },
        {
          "internalType": "uint256",
          "name": "tokenID",
          "type": "uint256"
        },
        {
          "internalType": "uint256",
          "name": "amountToSell",
          "type": "uint256"
        }
      ],
      "name": "sellMetaHouse",
      "outputs": [],
      "stateMutability": "nonpayable",
      "type": "function"
    },
    {
      "inputs": [
        {
          "internalType": "address payable",
          "name": "owner",
          "type": "address"
        },
        {
          "internalType": "address",
          "name": "renter",
          "type": "address"
        },
        {
          "internalType": "uint256",
          "name": "tokenID",
          "type": "uint256"
        },
        {
          "internalType": "uint256",
          "name": "duration",
          "type": "uint256"
        },
        {
          "internalType": "uint256",
          "name": "rentAmount",
          "type": "uint256"
        }
      ],
      "name": "rentMetaHouse",
      "outputs": [],
      "stateMutability": "payable",
      "type": "function",
      "payable": true
    },
    {
      "inputs": [
        {
          "internalType": "address",
          "name": "owner",
          "type": "address"
        },
        {
          "internalType": "address",
          "name": "renter",
          "type": "address"
        },
        {
          "internalType": "uint256",
          "name": "tokenID",
          "type": "uint256"
        }
      ],
      "name": "claimRentedHouse",
      "outputs": [],
      "stateMutability": "nonpayable",
      "type": "function"
    },
    {
      "inputs": [
        {
          "internalType": "address payable",
          "name": "owner",
          "type": "address"
        },
        {
          "internalType": "address payable",
          "name": "renter",
          "type": "address"
        },
        {
          "internalType": "uint256",
          "name": "tokenID",
          "type": "uint256"
        },
        {
          "internalType": "uint256",
          "name": "duration",
          "type": "uint256"
        },
        {
          "internalType": "uint256",
          "name": "rentAmount",
          "type": "uint256"
        }
      ],
      "name": "cancelRentDeal",
      "outputs": [],
      "stateMutability": "payable",
      "type": "function",
      "payable": true
    },
    {
      "inputs": [
        {
          "internalType": "address",
          "name": "owner",
          "type": "address"
        },
        {
          "internalType": "address",
          "name": "leasePartner",
          "type": "address"
        },
        {
          "internalType": "uint256",
          "name": "tokenId",
          "type": "uint256"
        },
        {
          "internalType": "uint256",
          "name": "leaseAmount",
          "type": "uint256"
        },
        {
          "internalType": "uint256",
          "name": "leasePeriod",
          "type": "uint256"
        }
      ],
      "name": "setLeaseAgreement",
      "outputs": [],
      "stateMutability": "nonpayable",
      "type": "function"
    },
    {
      "inputs": [
        {
          "internalType": "address payable",
          "name": "owner",
          "type": "address"
        },
        {
          "internalType": "address payable",
          "name": "leasePartner",
          "type": "address"
        },
        {
          "internalType": "uint256",
          "name": "tokenId",
          "type": "uint256"
        },
        {
          "internalType": "uint256",
          "name": "leaseAmount",
          "type": "uint256"
        }
      ],
      "name": "returnLeaseItem",
      "outputs": [],
      "stateMutability": "payable",
      "type": "function",
      "payable": true
    },
    {
      "inputs": [
        {
          "internalType": "address payable",
          "name": "partner1",
          "type": "address"
        },
        {
          "internalType": "address payable",
          "name": "partner2",
          "type": "address"
        },
        {
          "internalType": "uint256",
          "name": "amount",
          "type": "uint256"
        }
      ],
      "name": "buyWithAPartner",
      "outputs": [],
      "stateMutability": "payable",
      "type": "function",
      "payable": true
    },
    {
      "inputs": [
        {
          "internalType": "address",
          "name": "partner1",
          "type": "address"
        },
        {
          "internalType": "address",
          "name": "approvingPartner",
          "type": "address"
        },
        {
          "internalType": "uint256",
          "name": "tokenID",
          "type": "uint256"
        }
      ],
      "name": "approvePartner",
      "outputs": [],
      "stateMutability": "nonpayable",
      "type": "function"
    },
    {
      "inputs": [
        {
          "internalType": "address payable",
          "name": "partner1",
          "type": "address"
        },
        {
          "internalType": "address payable",
          "name": "buyingPartner",
          "type": "address"
        },
        {
          "internalType": "uint256",
          "name": "tokenID",
          "type": "uint256"
        },
        {
          "internalType": "uint256",
          "name": "buyingAmount",
          "type": "uint256"
        }
      ],
      "name": "buyOutPartner",
      "outputs": [],
      "stateMutability": "payable",
      "type": "function",
      "payable": true
    },
    {
      "inputs": [
        {
          "internalType": "address",
          "name": "partner1",
          "type": "address"
        },
        {
          "internalType": "address",
          "name": "sellingPartner",
          "type": "address"
        },
        {
          "internalType": "uint256",
          "name": "amount",
          "type": "uint256"
        },
        {
          "internalType": "uint256",
          "name": "tokenID",
          "type": "uint256"
        },
        {
          "internalType": "address",
          "name": "newPartner",
          "type": "address"
        }
      ],
      "name": "sellPartnership",
      "outputs": [],
      "stateMutability": "nonpayable",
      "type": "function"
    }
  ],
  "bytecode": "0x6080604052600160075534801561001557600080fd5b50336000806101000a81548173ffffffffffffffffffffffffffffffffffffffff021916908373ffffffffffffffffffffffffffffffffffffffff160217905550613155806100656000396000f3fe6080604052600436106101c25760003560e01c806363c3cb78116100f7578063a7a9524a11610095578063cca3e83211610064578063cca3e832146106a1578063cd14e0b4146106de578063d6ca148c146106fa578063d88cd01314610737576101c2565b8063a7a9524a146105ad578063aa5f434c146105ea578063af85b63714610627578063c2a9a6d514610664576101c2565b806374371b36116100d157806374371b36146104ec57806395b6bb51146105295780639745cc3d146105455780639e60691d14610582576101c2565b806363c3cb781461046a57806369dc97771461048657806370a08231146104af576101c2565b80633b816e97116101645780634cf755701161013e5780634cf75570146103cc578063533d8bf4146103e857806356612867146104045780635d0341ba1461042d576101c2565b80633b816e971461031557806348e2b6f5146103525780634ce767411461038f576101c2565b8063222dc80b116101a0578063222dc80b1461024957806329979ef6146102725780632cf6ebe2146102af57806338350541146102d8576101c2565b8063041f9e64146101c757806305d954ac146101e3578063094e948c14610220575b600080fd5b6101e160048036038101906101dc9190612b27565b610774565b005b3480156101ef57600080fd5b5061020a60048036038101906102059190612ba2565b610ad4565b6040516102179190612bfd565b60405180910390f35b34801561022c57600080fd5b5061024760048036038101906102429190612c18565b610b03565b005b34801561025557600080fd5b50610270600480360381019061026b9190612c7f565b610e90565b005b34801561027e57600080fd5b5061029960048036038101906102949190612ba2565b6111c9565b6040516102a69190612d09565b60405180910390f35b3480156102bb57600080fd5b506102d660048036038101906102d19190612d24565b6111ee565b005b3480156102e457600080fd5b506102ff60048036038101906102fa9190612d77565b611403565b60405161030c9190612db3565b60405180910390f35b34801561032157600080fd5b5061033c60048036038101906103379190612ba2565b611436565b6040516103499190612d09565b60405180910390f35b34801561035e57600080fd5b5061037960048036038101906103749190612dce565b61145b565b6040516103869190612d09565b60405180910390f35b34801561039b57600080fd5b506103b660048036038101906103b19190612dce565b611473565b6040516103c39190612bfd565b60405180910390f35b6103e660048036038101906103e19190612dfb565b611493565b005b61040260048036038101906103fd9190612e4e565b611688565b005b34801561041057600080fd5b5061042b60048036038101906104269190612ec9565b611942565b005b34801561043957600080fd5b50610454600480360381019061044f9190612dce565b611c31565b6040516104619190612bfd565b60405180910390f35b610484600480360381019061047f9190612f44565b611c51565b005b34801561049257600080fd5b506104ad60048036038101906104a89190612d24565b6120d6565b005b3480156104bb57600080fd5b506104d660048036038101906104d19190612dce565b61220a565b6040516104e39190612d09565b60405180910390f35b3480156104f857600080fd5b50610513600480360381019061050e9190612dce565b612253565b6040516105209190612d09565b60405180910390f35b610543600480360381019061053e9190612fab565b61226b565b005b34801561055157600080fd5b5061056c60048036038101906105679190612d77565b61258c565b6040516105799190612bfd565b60405180910390f35b34801561058e57600080fd5b506105976125ac565b6040516105a49190612d09565b60405180910390f35b3480156105b957600080fd5b506105d460048036038101906105cf9190612ba2565b6125b2565b6040516105e19190612d09565b60405180910390f35b3480156105f657600080fd5b50610611600480360381019061060c9190612ba2565b6125d7565b60405161061e9190612bfd565b60405180910390f35b34801561063357600080fd5b5061064e60048036038101906106499190612ba2565b612606565b60405161065b9190612d09565b60405180910390f35b34801561067057600080fd5b5061068b60048036038101906106869190612d77565b61262b565b6040516106989190612db3565b60405180910390f35b3480156106ad57600080fd5b506106c860048036038101906106c39190612dce565b61265e565b6040516106d59190612d09565b60405180910390f35b6106f860048036038101906106f39190612f44565b612676565b005b34801561070657600080fd5b50610721600480360381019061071c9190612dce565b612a09565b60405161072e9190612d09565b60405180910390f35b34801561074357600080fd5b5061075e60048036038101906107599190612ba2565b612a21565b60405161076b9190612bfd565b60405180910390f35b8473ffffffffffffffffffffffffffffffffffffffff166001600085815260200190815260200160002060009054906101000a900473ffffffffffffffffffffffffffffffffffffffff1673ffffffffffffffffffffffffffffffffffffffff16146107df57600080fd5b6001600260008773ffffffffffffffffffffffffffffffffffffffff1673ffffffffffffffffffffffffffffffffffffffff16815260200190815260200160002054101561082c57600080fd5b600115156005600085815260200190815260200160002060009054906101000a900460ff1615150361085d57600080fd5b8373ffffffffffffffffffffffffffffffffffffffff163373ffffffffffffffffffffffffffffffffffffffff161461089557600080fd5b60008081846108a4919061302d565b9050600084846108b49190613061565b90503481146108c257600080fd5b3490508773ffffffffffffffffffffffffffffffffffffffff166108fc829081150290604051600060405180830381858888f1935050505015801561090b573d6000803e3d6000fd5b50866001600088815260200190815260200160002060006101000a81548173ffffffffffffffffffffffffffffffffffffffff021916908373ffffffffffffffffffffffffffffffffffffffff1602179055506001600960008973ffffffffffffffffffffffffffffffffffffffff1673ffffffffffffffffffffffffffffffffffffffff16815260200190815260200160002060008a73ffffffffffffffffffffffffffffffffffffffff1673ffffffffffffffffffffffffffffffffffffffff16815260200190815260200160002060006101000a81548160ff02191690831515021790555080600a60008973ffffffffffffffffffffffffffffffffffffffff1673ffffffffffffffffffffffffffffffffffffffff1681526020019081526020016000208190555084600b60008973ffffffffffffffffffffffffffffffffffffffff1673ffffffffffffffffffffffffffffffffffffffff168152602001908152602001600020819055508142610a87919061302d565b600860008973ffffffffffffffffffffffffffffffffffffffff1673ffffffffffffffffffffffffffffffffffffffff168152602001908152602001600020819055505050505050505050565b60096020528160005260406000206020528060005260406000206000915091509054906101000a900460ff1681565b3373ffffffffffffffffffffffffffffffffffffffff168473ffffffffffffffffffffffffffffffffffffffff1614610b3b57600080fd5b8373ffffffffffffffffffffffffffffffffffffffff166001600084815260200190815260200160002060009054906101000a900473ffffffffffffffffffffffffffffffffffffffff1673ffffffffffffffffffffffffffffffffffffffff1614610ba657600080fd5b80600260008673ffffffffffffffffffffffffffffffffffffffff1673ffffffffffffffffffffffffffffffffffffffff1681526020019081526020016000205410158015610bf6575060008114155b610bff57600080fd5b60011515601060008673ffffffffffffffffffffffffffffffffffffffff1673ffffffffffffffffffffffffffffffffffffffff16815260200190815260200160002060009054906101000a900460ff16151503610d8b57600115156005600084815260200190815260200160002060009054906101000a900460ff16151503610c8857600080fd5b826001600084815260200190815260200160002060006101000a81548173ffffffffffffffffffffffffffffffffffffffff021916908373ffffffffffffffffffffffffffffffffffffffff16021790555080600260008573ffffffffffffffffffffffffffffffffffffffff1673ffffffffffffffffffffffffffffffffffffffff1681526020019081526020016000206000828254610d29919061302d565b9250508190555080600260008673ffffffffffffffffffffffffffffffffffffffff1673ffffffffffffffffffffffffffffffffffffffff1681526020019081526020016000206000828254610d7f91906130a3565b92505081905550610e8a565b826001600084815260200190815260200160002060006101000a81548173ffffffffffffffffffffffffffffffffffffffff021916908373ffffffffffffffffffffffffffffffffffffffff16021790555080600260008573ffffffffffffffffffffffffffffffffffffffff1673ffffffffffffffffffffffffffffffffffffffff1681526020019081526020016000206000828254610e2c919061302d565b9250508190555080600260008673ffffffffffffffffffffffffffffffffffffffff1673ffffffffffffffffffffffffffffffffffffffff1681526020019081526020016000206000828254610e8291906130a3565b925050819055505b50505050565b8473ffffffffffffffffffffffffffffffffffffffff166001600085815260200190815260200160002060009054906101000a900473ffffffffffffffffffffffffffffffffffffffff1673ffffffffffffffffffffffffffffffffffffffff1614610efb57600080fd5b8373ffffffffffffffffffffffffffffffffffffffff163373ffffffffffffffffffffffffffffffffffffffff1614610f3357600080fd5b6001600260008773ffffffffffffffffffffffffffffffffffffffff1673ffffffffffffffffffffffffffffffffffffffff168152602001908152602001600020541015610f8057600080fd5b600115156005600085815260200190815260200160002060009054906101000a900460ff16151503610fb157600080fd5b6000808242610fc0919061302d565b610fca919061302d565b90506001600c60008873ffffffffffffffffffffffffffffffffffffffff1673ffffffffffffffffffffffffffffffffffffffff16815260200190815260200160002060008773ffffffffffffffffffffffffffffffffffffffff1673ffffffffffffffffffffffffffffffffffffffff16815260200190815260200160002060006101000a81548160ff02191690831515021790555060008361106e919061302d565b600d60008873ffffffffffffffffffffffffffffffffffffffff1673ffffffffffffffffffffffffffffffffffffffff16815260200190815260200160002060008773ffffffffffffffffffffffffffffffffffffffff1673ffffffffffffffffffffffffffffffffffffffff1681526020019081526020016000208190555080600e60008873ffffffffffffffffffffffffffffffffffffffff1673ffffffffffffffffffffffffffffffffffffffff16815260200190815260200160002060008773ffffffffffffffffffffffffffffffffffffffff1673ffffffffffffffffffffffffffffffffffffffff16815260200190815260200160002081905550846001600086815260200190815260200160002060006101000a81548173ffffffffffffffffffffffffffffffffffffffff021916908373ffffffffffffffffffffffffffffffffffffffff160217905550505050505050565b600e602052816000526040600020602052806000526040600020600091509150505481565b600860008373ffffffffffffffffffffffffffffffffffffffff1673ffffffffffffffffffffffffffffffffffffffff1681526020019081526020016000205442101561123a57600080fd5b60011515600960008473ffffffffffffffffffffffffffffffffffffffff1673ffffffffffffffffffffffffffffffffffffffff16815260200190815260200160002060008573ffffffffffffffffffffffffffffffffffffffff1673ffffffffffffffffffffffffffffffffffffffff16815260200190815260200160002060009054906101000a900460ff161515146112d457600080fd5b6000600960008473ffffffffffffffffffffffffffffffffffffffff1673ffffffffffffffffffffffffffffffffffffffff16815260200190815260200160002060008573ffffffffffffffffffffffffffffffffffffffff1673ffffffffffffffffffffffffffffffffffffffff16815260200190815260200160002060006101000a81548160ff021916908315150217905550826001600083815260200190815260200160002060006101000a81548173ffffffffffffffffffffffffffffffffffffffff021916908373ffffffffffffffffffffffffffffffffffffffff160217905550600860008373ffffffffffffffffffffffffffffffffffffffff1673ffffffffffffffffffffffffffffffffffffffff16815260200190815260200160002060009055505050565b60016020528060005260406000206000915054906101000a900473ffffffffffffffffffffffffffffffffffffffff1681565b6011602052816000526040600020602052806000526040600020600091509150505481565b60086020528060005260406000206000915090505481565b60106020528060005260406000206000915054906101000a900460ff1681565b8173ffffffffffffffffffffffffffffffffffffffff163373ffffffffffffffffffffffffffffffffffffffff16146114cb57600080fd5b3490506001600f60008573ffffffffffffffffffffffffffffffffffffffff1673ffffffffffffffffffffffffffffffffffffffff16815260200190815260200160002060008473ffffffffffffffffffffffffffffffffffffffff1673ffffffffffffffffffffffffffffffffffffffff16815260200190815260200160002060006101000a81548160ff02191690831515021790555080601160008573ffffffffffffffffffffffffffffffffffffffff1673ffffffffffffffffffffffffffffffffffffffff16815260200190815260200160002060008473ffffffffffffffffffffffffffffffffffffffff1673ffffffffffffffffffffffffffffffffffffffff168152602001908152602001600020819055506001601060008573ffffffffffffffffffffffffffffffffffffffff1673ffffffffffffffffffffffffffffffffffffffff16815260200190815260200160002060006101000a81548160ff0219169083151502179055508273ffffffffffffffffffffffffffffffffffffffff166108fc829081150290604051600060405180830381858888f19350505050158015611682573d6000803e3d6000fd5b50505050565b600860008573ffffffffffffffffffffffffffffffffffffffff1673ffffffffffffffffffffffffffffffffffffffff1681526020019081526020016000205442106116d357600080fd5b60011515600960008673ffffffffffffffffffffffffffffffffffffffff1673ffffffffffffffffffffffffffffffffffffffff16815260200190815260200160002060008773ffffffffffffffffffffffffffffffffffffffff1673ffffffffffffffffffffffffffffffffffffffff16815260200190815260200160002060009054906101000a900460ff1615151461176d57600080fd5b600a60008573ffffffffffffffffffffffffffffffffffffffff1673ffffffffffffffffffffffffffffffffffffffff1681526020019081526020016000205481146117b857600080fd5b81600b60008673ffffffffffffffffffffffffffffffffffffffff1673ffffffffffffffffffffffffffffffffffffffff168152602001908152602001600020541461180357600080fd5b8473ffffffffffffffffffffffffffffffffffffffff163373ffffffffffffffffffffffffffffffffffffffff161461183b57600080fd5b6000429050600081600860008873ffffffffffffffffffffffffffffffffffffffff1673ffffffffffffffffffffffffffffffffffffffff1681526020019081526020016000205461188d91906130a3565b90506000848261189d9190613061565b90508673ffffffffffffffffffffffffffffffffffffffff166108fc829081150290604051600060405180830381858888f193505050501580156118e5573d6000803e3d6000fd5b50876001600088815260200190815260200160002060006101000a81548173ffffffffffffffffffffffffffffffffffffffff021916908373ffffffffffffffffffffffffffffffffffffffff1602179055505050505050505050565b8373ffffffffffffffffffffffffffffffffffffffff163373ffffffffffffffffffffffffffffffffffffffff161461197a57600080fd5b600015156005600084815260200190815260200160002060009054906101000a900460ff161515146119ab57600080fd5b60011515601260008773ffffffffffffffffffffffffffffffffffffffff1673ffffffffffffffffffffffffffffffffffffffff16815260200190815260200160002060009054906101000a900460ff16151514611a0857600080fd5b6001600f60008773ffffffffffffffffffffffffffffffffffffffff1673ffffffffffffffffffffffffffffffffffffffff16815260200190815260200160002060008373ffffffffffffffffffffffffffffffffffffffff1673ffffffffffffffffffffffffffffffffffffffff16815260200190815260200160002060006101000a81548160ff02191690831515021790555082601160008773ffffffffffffffffffffffffffffffffffffffff1673ffffffffffffffffffffffffffffffffffffffff16815260200190815260200160002060008373ffffffffffffffffffffffffffffffffffffffff1673ffffffffffffffffffffffffffffffffffffffff16815260200190815260200160002081905550600f60008673ffffffffffffffffffffffffffffffffffffffff1673ffffffffffffffffffffffffffffffffffffffff16815260200190815260200160002060008573ffffffffffffffffffffffffffffffffffffffff1673ffffffffffffffffffffffffffffffffffffffff16815260200190815260200160002060006101000a81549060ff0219169055601160008673ffffffffffffffffffffffffffffffffffffffff1673ffffffffffffffffffffffffffffffffffffffff16815260200190815260200160002060008573ffffffffffffffffffffffffffffffffffffffff1673ffffffffffffffffffffffffffffffffffffffff168152602001908152602001600020600090555050505050565b60126020528060005260406000206000915054906101000a900460ff1681565b600e60008573ffffffffffffffffffffffffffffffffffffffff1673ffffffffffffffffffffffffffffffffffffffff16815260200190815260200160002060008473ffffffffffffffffffffffffffffffffffffffff1673ffffffffffffffffffffffffffffffffffffffff16815260200190815260200160002054421015611cda57600080fd5b600d60008573ffffffffffffffffffffffffffffffffffffffff1673ffffffffffffffffffffffffffffffffffffffff16815260200190815260200160002060008473ffffffffffffffffffffffffffffffffffffffff1673ffffffffffffffffffffffffffffffffffffffff168152602001908152602001600020548114611d6257600080fd5b8273ffffffffffffffffffffffffffffffffffffffff163373ffffffffffffffffffffffffffffffffffffffff1614611d9a57600080fd5b8273ffffffffffffffffffffffffffffffffffffffff166001600084815260200190815260200160002060009054906101000a900473ffffffffffffffffffffffffffffffffffffffff1673ffffffffffffffffffffffffffffffffffffffff1614611e0557600080fd5b60011515600c60008673ffffffffffffffffffffffffffffffffffffffff1673ffffffffffffffffffffffffffffffffffffffff16815260200190815260200160002060008573ffffffffffffffffffffffffffffffffffffffff1673ffffffffffffffffffffffffffffffffffffffff16815260200190815260200160002060009054906101000a900460ff16151514611e9f57600080fd5b348114611eab57600080fd5b8373ffffffffffffffffffffffffffffffffffffffff166108fc829081150290604051600060405180830381858888f19350505050158015611ef1573d6000803e3d6000fd5b50836001600084815260200190815260200160002060006101000a81548173ffffffffffffffffffffffffffffffffffffffff021916908373ffffffffffffffffffffffffffffffffffffffff160217905550600d60008573ffffffffffffffffffffffffffffffffffffffff1673ffffffffffffffffffffffffffffffffffffffff16815260200190815260200160002060008473ffffffffffffffffffffffffffffffffffffffff1673ffffffffffffffffffffffffffffffffffffffff16815260200190815260200160002060009055600e60008573ffffffffffffffffffffffffffffffffffffffff1673ffffffffffffffffffffffffffffffffffffffff16815260200190815260200160002060008473ffffffffffffffffffffffffffffffffffffffff1673ffffffffffffffffffffffffffffffffffffffff16815260200190815260200160002060009055600c60008573ffffffffffffffffffffffffffffffffffffffff1673ffffffffffffffffffffffffffffffffffffffff16815260200190815260200160002060008473ffffffffffffffffffffffffffffffffffffffff1673ffffffffffffffffffffffffffffffffffffffff16815260200190815260200160002060006101000a81549060ff021916905550505050565b60011515600f60008573ffffffffffffffffffffffffffffffffffffffff1673ffffffffffffffffffffffffffffffffffffffff16815260200190815260200160002060008473ffffffffffffffffffffffffffffffffffffffff1673ffffffffffffffffffffffffffffffffffffffff16815260200190815260200160002060009054906101000a900460ff1615151461217057600080fd5b600115156005600083815260200190815260200160002060009054906101000a900460ff161515146121a157600080fd5b8173ffffffffffffffffffffffffffffffffffffffff163373ffffffffffffffffffffffffffffffffffffffff16146121d957600080fd5b60006005600083815260200190815260200160002060006101000a81548160ff021916908315150217905550505050565b6000600260008373ffffffffffffffffffffffffffffffffffffffff1673ffffffffffffffffffffffffffffffffffffffff168152602001908152602001600020549050919050565b600b6020528060005260406000206000915090505481565b34821461227757600080fd5b600754811461228557600080fd5b60011515601060008573ffffffffffffffffffffffffffffffffffffffff1673ffffffffffffffffffffffffffffffffffffffff16815260200190815260200160002060009054906101000a900460ff161515036124515760008054906101000a900473ffffffffffffffffffffffffffffffffffffffff1673ffffffffffffffffffffffffffffffffffffffff166108fc839081150290604051600060405180830381858888f19350505050158015612343573d6000803e3d6000fd5b5080600260008573ffffffffffffffffffffffffffffffffffffffff1673ffffffffffffffffffffffffffffffffffffffff1681526020019081526020016000206000828254612393919061302d565b92505081905550826001600060016006546123ae919061302d565b815260200190815260200160002060006101000a81548173ffffffffffffffffffffffffffffffffffffffff021916908373ffffffffffffffffffffffffffffffffffffffff160217905550600160056000600160065461240f919061302d565b815260200190815260200160002060006101000a81548160ff02191690831515021790555060066000815480929190612447906130d7565b9190505550612587565b60008054906101000a900473ffffffffffffffffffffffffffffffffffffffff1673ffffffffffffffffffffffffffffffffffffffff166108fc839081150290604051600060405180830381858888f193505050501580156124b7573d6000803e3d6000fd5b5080600260008573ffffffffffffffffffffffffffffffffffffffff1673ffffffffffffffffffffffffffffffffffffffff1681526020019081526020016000206000828254612507919061302d565b9250508190555082600160006001600654612522919061302d565b815260200190815260200160002060006101000a81548173ffffffffffffffffffffffffffffffffffffffff021916908373ffffffffffffffffffffffffffffffffffffffff16021790555060066000815480929190612581906130d7565b91905055505b505050565b60056020528060005260406000206000915054906101000a900460ff1681565b60065481565b6003602052816000526040600020602052806000526040600020600091509150505481565b600f6020528160005260406000206020528060005260406000206000915091509054906101000a900460ff1681565b600d602052816000526040600020602052806000526040600020600091509150505481565b60046020528060005260406000206000915054906101000a900473ffffffffffffffffffffffffffffffffffffffff1681565b60026020528060005260406000206000915090505481565b60011515600f60008673ffffffffffffffffffffffffffffffffffffffff1673ffffffffffffffffffffffffffffffffffffffff16815260200190815260200160002060008573ffffffffffffffffffffffffffffffffffffffff1673ffffffffffffffffffffffffffffffffffffffff16815260200190815260200160002060009054906101000a900460ff1615151461271057600080fd5b600015156005600084815260200190815260200160002060009054906101000a900460ff1615151461274157600080fd5b60011515601260008673ffffffffffffffffffffffffffffffffffffffff1673ffffffffffffffffffffffffffffffffffffffff16815260200190815260200160002060009054906101000a900460ff1615151461279e57600080fd5b80601160008673ffffffffffffffffffffffffffffffffffffffff1673ffffffffffffffffffffffffffffffffffffffff16815260200190815260200160002060008573ffffffffffffffffffffffffffffffffffffffff1673ffffffffffffffffffffffffffffffffffffffff168152602001908152602001600020541461282657600080fd5b8273ffffffffffffffffffffffffffffffffffffffff163373ffffffffffffffffffffffffffffffffffffffff161461285e57600080fd5b826001600084815260200190815260200160002060006101000a81548173ffffffffffffffffffffffffffffffffffffffff021916908373ffffffffffffffffffffffffffffffffffffffff1602179055508373ffffffffffffffffffffffffffffffffffffffff166108fc829081150290604051600060405180830381858888f193505050501580156128f6573d6000803e3d6000fd5b50600f60008573ffffffffffffffffffffffffffffffffffffffff1673ffffffffffffffffffffffffffffffffffffffff16815260200190815260200160002060008473ffffffffffffffffffffffffffffffffffffffff1673ffffffffffffffffffffffffffffffffffffffff16815260200190815260200160002060006101000a81549060ff0219169055601160008573ffffffffffffffffffffffffffffffffffffffff1673ffffffffffffffffffffffffffffffffffffffff16815260200190815260200160002060008473ffffffffffffffffffffffffffffffffffffffff1673ffffffffffffffffffffffffffffffffffffffff1681526020019081526020016000206000905550505050565b600a6020528060005260406000206000915090505481565b600c6020528160005260406000206020528060005260406000206000915091509054906101000a900460ff1681565b600080fd5b600073ffffffffffffffffffffffffffffffffffffffff82169050919050565b6000612a8082612a55565b9050919050565b612a9081612a75565b8114612a9b57600080fd5b50565b600081359050612aad81612a87565b92915050565b6000612abe82612a55565b9050919050565b612ace81612ab3565b8114612ad957600080fd5b50565b600081359050612aeb81612ac5565b92915050565b6000819050919050565b612b0481612af1565b8114612b0f57600080fd5b50565b600081359050612b2181612afb565b92915050565b600080600080600060a08688031215612b4357612b42612a50565b5b6000612b5188828901612a9e565b9550506020612b6288828901612adc565b9450506040612b7388828901612b12565b9350506060612b8488828901612b12565b9250506080612b9588828901612b12565b9150509295509295909350565b60008060408385031215612bb957612bb8612a50565b5b6000612bc785828601612adc565b9250506020612bd885828601612adc565b9150509250929050565b60008115159050919050565b612bf781612be2565b82525050565b6000602082019050612c126000830184612bee565b92915050565b60008060008060808587031215612c3257612c31612a50565b5b6000612c4087828801612adc565b9450506020612c5187828801612adc565b9350506040612c6287828801612b12565b9250506060612c7387828801612b12565b91505092959194509250565b600080600080600060a08688031215612c9b57612c9a612a50565b5b6000612ca988828901612adc565b9550506020612cba88828901612adc565b9450506040612ccb88828901612b12565b9350506060612cdc88828901612b12565b9250506080612ced88828901612b12565b9150509295509295909350565b612d0381612af1565b82525050565b6000602082019050612d1e6000830184612cfa565b92915050565b600080600060608486031215612d3d57612d3c612a50565b5b6000612d4b86828701612adc565b9350506020612d5c86828701612adc565b9250506040612d6d86828701612b12565b9150509250925092565b600060208284031215612d8d57612d8c612a50565b5b6000612d9b84828501612b12565b91505092915050565b612dad81612ab3565b82525050565b6000602082019050612dc86000830184612da4565b92915050565b600060208284031215612de457612de3612a50565b5b6000612df284828501612adc565b91505092915050565b600080600060608486031215612e1457612e13612a50565b5b6000612e2286828701612a9e565b9350506020612e3386828701612a9e565b9250506040612e4486828701612b12565b9150509250925092565b600080600080600060a08688031215612e6a57612e69612a50565b5b6000612e7888828901612a9e565b9550506020612e8988828901612a9e565b9450506040612e9a88828901612b12565b9350506060612eab88828901612b12565b9250506080612ebc88828901612b12565b9150509295509295909350565b600080600080600060a08688031215612ee557612ee4612a50565b5b6000612ef388828901612adc565b9550506020612f0488828901612adc565b9450506040612f1588828901612b12565b9350506060612f2688828901612b12565b9250506080612f3788828901612adc565b9150509295509295909350565b60008060008060808587031215612f5e57612f5d612a50565b5b6000612f6c87828801612a9e565b9450506020612f7d87828801612a9e565b9350506040612f8e87828801612b12565b9250506060612f9f87828801612b12565b91505092959194509250565b600080600060608486031215612fc457612fc3612a50565b5b6000612fd286828701612adc565b9350506020612fe386828701612b12565b9250506040612ff486828701612b12565b9150509250925092565b7f4e487b7100000000000000000000000000000000000000000000000000000000600052601160045260246000fd5b600061303882612af1565b915061304383612af1565b925082820190508082111561305b5761305a612ffe565b5b92915050565b600061306c82612af1565b915061307783612af1565b925082820261308581612af1565b9150828204841483151761309c5761309b612ffe565b5b5092915050565b60006130ae82612af1565b91506130b983612af1565b92508282039050818111156130d1576130d0612ffe565b5b92915050565b60006130e282612af1565b91507fffffffffffffffffffffffffffffffffffffffffffffffffffffffffffffffff820361311457613113612ffe565b5b60018201905091905056fea2646970667358221220206b945ac2336039ccc62dce11732a9e197171e05ceae1102ebbc566dcfebdd664736f6c63430008110033",
  "immutableReferences": {},
  "source": "pragma solidity ^0.8.0; //SPDX-License-Identifier: UNLICENSED\n\ncontract metaBnb {\n\n    address payable metaEstateAdmin;\n\n    constructor() {\n       metaEstateAdmin = payable(msg.sender);\n    }\n\n    event transfer(address indexed from, address indexed to, uint indexed tokenId);\n    event _approve(address indexed owner, address indexed spender, uint indexed tokenId);\n    event _allApproval(address indexed owner, address indexed operator, uint indexed tokenId);\n\n    mapping(uint => address) public _ownerOf;\n    mapping(address => uint) public _balanceOf;\n    mapping(address => mapping(address => uint)) public _approvalForAll;\n    mapping(uint => address) public _approvals;\n    mapping(uint => bool) public tokenState;\n\n    uint public uniqueIds;\n    uint maxBuyperOnce = 1;\n\n    // function ownerOf(uint tokenId) external view  returns(address owner) {\n    //     require(owner != address(0));\n    //     return _ownerOf[tokenId];\n    // }\n\n    function balanceOf(address owner) external view  returns(uint) {\n        return _balanceOf[owner];\n    }\n\n    function buyMetaHouse(address buyer, uint price, uint amountToBuy) external payable {\n        require(price == msg.value);\n        require(amountToBuy == maxBuyperOnce);\n        if(coOwner[buyer] == true) {\n            metaEstateAdmin.transfer(price);\n            _balanceOf[buyer] += amountToBuy;\n            _ownerOf[uniqueIds + 1] = buyer;\n            tokenState[uniqueIds + 1] = true;\n            uniqueIds ++;            \n        } else {\n            metaEstateAdmin.transfer(price);\n            _balanceOf[buyer] += amountToBuy;\n            _ownerOf[uniqueIds + 1] = buyer;\n            uniqueIds ++;\n        }\n    }\n\n    function getApprovalState(address investor) private view returns(bool) {\n        return approvals[investor];\n    }\n\n     function getTokenState(uint tokenId) private view returns(bool) {\n        return tokenState[tokenId];\n    }\n\n\n    function sellMetaHouse(address seller, address newOwner, uint tokenID, uint amountToSell) external {\n        require(seller == msg.sender);\n        require(_ownerOf[tokenID] == seller);\n        require(_balanceOf[seller] >= amountToSell && amountToSell != 0);\n         if(coOwner[seller] == true) {\n            require(tokenState[tokenID] != true);\n            _ownerOf[tokenID] = newOwner;\n            _balanceOf[newOwner] += amountToSell;\n            _balanceOf[seller] -= amountToSell;\n         } else {\n             _ownerOf[tokenID] = newOwner;\n            _balanceOf[newOwner] += amountToSell;\n            _balanceOf[seller] -= amountToSell;\n\n         }\n    }\n\n    mapping(address => uint) public rentDueDate;\n    mapping(address => mapping(address =>bool)) public rentLedger;\n    mapping(address => uint) public rentAmountsLedger;\n    mapping(address => uint) public durationRecord;\n\n    function rentMetaHouse(address payable owner, address renter, uint tokenID, uint duration, uint rentAmount) payable external {\n        require(_ownerOf[tokenID] == owner);\n        require(_balanceOf[owner] >= 1);\n        require(tokenState[tokenID] != true);\n        require(msg.sender == renter);\n        uint time = 0 seconds; \n        uint durations = duration + time;    \n        uint totalPayment = rentAmount * duration;\n        require(totalPayment == msg.value);\n        totalPayment = msg.value;\n        owner.transfer(totalPayment);\n        _ownerOf[tokenID] = renter;\n        rentLedger[renter][owner] = true;\n        rentAmountsLedger[renter] = totalPayment;\n        durationRecord[renter] = duration;\n        rentDueDate[renter] = block.timestamp + durations;\n    }\n\n    function claimRentedHouse(address owner, address renter, uint tokenID) external {\n        require(block.timestamp >= rentDueDate[renter]);\n        require(rentLedger[renter][owner] == true);\n        rentLedger[renter][owner] = false;\n        _ownerOf[tokenID] = owner;\n        delete rentDueDate[renter];\n    } \n\n    function cancelRentDeal(address payable owner, address payable renter, uint tokenID, uint duration,uint rentAmount) external payable {\n        require(block.timestamp < rentDueDate[renter]);\n        require(rentLedger[renter][owner] == true);\n        require(rentAmount == rentAmountsLedger[renter]);\n        require(durationRecord[renter] == duration);\n        require(msg.sender == owner);\n        uint currentTime = block.timestamp;\n        uint awaitingTime = rentDueDate[renter] - currentTime;\n        uint cancelAmount = awaitingTime * duration;\n        renter.transfer(cancelAmount);\n        _ownerOf[tokenID] = owner;\n    }\n\n    mapping(address => mapping(address => bool)) public leaseAgreementLedger;\n    mapping(address => mapping(address => uint)) public leaseAgreementAmount;\n    mapping(address => mapping(address => uint)) public leaseAgreementDuration;\n\n\n// 0x4B20993Bc481177ec7E8f571ceCaE8A9e22C02db leaser\n// 0xAb8483F64d9C6d1EcF9b849Ae677dD3315835cb2 owner\n    \n    function setLeaseAgreement(address owner, address leasePartner, uint tokenId, uint leaseAmount, uint leasePeriod) external {\n        require(_ownerOf[tokenId] == owner);\n        require(msg.sender == leasePartner);\n        require(_balanceOf[owner] >= 1);\n        require(tokenState[tokenId] != true);\n        uint leaseDuration = block.timestamp + leasePeriod + 0 minutes;\n        leaseAgreementLedger[owner][leasePartner] = true;\n        leaseAgreementAmount[owner][leasePartner] = leaseAmount + 0 wei;\n        leaseAgreementDuration[owner][leasePartner] = leaseDuration;\n        _ownerOf[tokenId] = leasePartner;\n    } \n\n    function returnLeaseItem(address payable owner, address payable leasePartner, uint tokenId, uint leaseAmount) payable external {\n        require(block.timestamp >= leaseAgreementDuration[owner][leasePartner]);\n        require(leaseAmount == leaseAgreementAmount[owner][leasePartner]);\n        require(msg.sender == leasePartner);\n        require(_ownerOf[tokenId] == leasePartner);\n        require(leaseAgreementLedger[owner][leasePartner] == true);\n        require(leaseAmount == msg.value);\n        owner.transfer(leaseAmount);\n        _ownerOf[tokenId] = owner;\n        delete leaseAgreementAmount[owner][leasePartner];\n        delete leaseAgreementDuration[owner][leasePartner];\n        delete leaseAgreementLedger[owner][leasePartner];\n    }\n\n    enum partnerToken {\n        coOwn\n    }\n\n    mapping(address => mapping(address => bool)) public partners;\n    mapping(address => bool) public coOwner;\n    mapping(address => mapping(address => uint)) public partnerAmount;\n    // mapping(address => mapping(address => uint)) public partnerLedger;\n\n    function buyWithAPartner(address payable partner1, address payable partner2, uint amount) payable external {\n        require(msg.sender == partner2);\n        amount = msg.value;\n        partners[partner1][partner2] = true;\n        partnerAmount[partner1][partner2] = amount;\n        coOwner[partner1] = true;\n        partner1.transfer(amount);\n    }\n    // 0x4B20993Bc481177ec7E8f571ceCaE8A9e22C02db partner1\n// 0xAb8483F64d9C6d1EcF9b849Ae677dD3315835cb2 partner2\n\n    mapping(address => bool) public approvals;\n    function approvePartner(address partner1, address approvingPartner, uint tokenID) external {\n        require(partners[partner1][approvingPartner] == true);\n        require(tokenState[tokenID] == true);\n        require(msg.sender == approvingPartner);\n        tokenState[tokenID] = false;\n    }\n\n    function buyOutPartner(address payable partner1, address payable buyingPartner, uint tokenID, uint buyingAmount) payable external {\n        require(partners[partner1][buyingPartner] == true);\n        require(tokenState[tokenID] == false);\n        require(approvals[partner1] == true);\n        require(partnerAmount[partner1][buyingPartner] == buyingAmount);\n        require(msg.sender == buyingPartner);\n        _ownerOf[tokenID] = buyingPartner;\n        partner1.transfer(buyingAmount);\n        delete partners[partner1][buyingPartner];\n        delete partnerAmount[partner1][buyingPartner];\n    }\n\n    function sellPartnership(address partner1, address sellingPartner, uint amount, uint tokenID, address newPartner) external {\n        require(msg.sender == sellingPartner);\n        require(tokenState[tokenID] == false);\n        require(approvals[partner1] == true);\n        partners[partner1][newPartner] = true; \n        partnerAmount[partner1][newPartner] = amount;      \n        delete partners[partner1][sellingPartner];\n        delete partnerAmount[partner1][sellingPartner];\n    }\n\n}\n",
  "sourcePath": "/home/eibrahim/Desktop/hayorgithub/metaBnb-smart-contract/contracts/metaBnb.sol",
  "compiler": {
    "name": "solc",
    "version": "0.8.17+commit.8df45f5f.Emscripten.clang"
  },
  "schemaVersion": "3.4.11",
  "updatedAt": "2022-12-24T14:17:36.093Z",
  "networkType": "ethereum",
  "devdoc": {
    "kind": "dev",
    "methods": {},
    "version": 1
  },
  "userdoc": {
    "kind": "user",
    "methods": {},
    "version": 1
  }
}