{
  "contractName": "metaBnb",
  "abi": [
    {
      "inputs": [],
      "stateMutability": "nonpayable",
      "type": "constructor"
    },
    {
      "anonymous": false,
      "inputs": [
        {
          "indexed": true,
          "internalType": "address",
          "name": "owner",
          "type": "address"
        },
        {
          "indexed": true,
          "internalType": "address",
          "name": "operator",
          "type": "address"
        },
        {
          "indexed": true,
          "internalType": "uint256",
          "name": "tokenId",
          "type": "uint256"
        }
      ],
      "name": "_allApproval",
      "type": "event"
    },
    {
      "anonymous": false,
      "inputs": [
        {
          "indexed": true,
          "internalType": "address",
          "name": "owner",
          "type": "address"
        },
        {
          "indexed": true,
          "internalType": "address",
          "name": "spender",
          "type": "address"
        },
        {
          "indexed": true,
          "internalType": "uint256",
          "name": "tokenId",
          "type": "uint256"
        }
      ],
      "name": "_approve",
      "type": "event"
    },
    {
      "anonymous": false,
      "inputs": [
        {
          "indexed": true,
          "internalType": "address",
          "name": "from",
          "type": "address"
        },
        {
          "indexed": true,
          "internalType": "address",
          "name": "to",
          "type": "address"
        },
        {
          "indexed": true,
          "internalType": "uint256",
          "name": "tokenId",
          "type": "uint256"
        }
      ],
      "name": "transfer",
      "type": "event"
    },
    {
      "inputs": [
        {
          "internalType": "address",
          "name": "",
          "type": "address"
        },
        {
          "internalType": "address",
          "name": "",
          "type": "address"
        }
      ],
      "name": "_approvalForAll",
      "outputs": [
        {
          "internalType": "uint256",
          "name": "",
          "type": "uint256"
        }
      ],
      "stateMutability": "view",
      "type": "function",
      "constant": true
    },
    {
      "inputs": [
        {
          "internalType": "uint256",
          "name": "",
          "type": "uint256"
        }
      ],
      "name": "_approvals",
      "outputs": [
        {
          "internalType": "address",
          "name": "",
          "type": "address"
        }
      ],
      "stateMutability": "view",
      "type": "function",
      "constant": true
    },
    {
      "inputs": [
        {
          "internalType": "address",
          "name": "",
          "type": "address"
        }
      ],
      "name": "_balanceOf",
      "outputs": [
        {
          "internalType": "uint256",
          "name": "",
          "type": "uint256"
        }
      ],
      "stateMutability": "view",
      "type": "function",
      "constant": true
    },
    {
      "inputs": [
        {
          "internalType": "uint256",
          "name": "",
          "type": "uint256"
        }
      ],
      "name": "_ownerOf",
      "outputs": [
        {
          "internalType": "address",
          "name": "",
          "type": "address"
        }
      ],
      "stateMutability": "view",
      "type": "function",
      "constant": true
    },
    {
      "inputs": [
        {
          "internalType": "address",
          "name": "",
          "type": "address"
        }
      ],
      "name": "approvals",
      "outputs": [
        {
          "internalType": "bool",
          "name": "",
          "type": "bool"
        }
      ],
      "stateMutability": "view",
      "type": "function",
      "constant": true
    },
    {
      "inputs": [
        {
          "internalType": "address",
          "name": "",
          "type": "address"
        }
      ],
      "name": "coOwner",
      "outputs": [
        {
          "internalType": "bool",
          "name": "",
          "type": "bool"
        }
      ],
      "stateMutability": "view",
      "type": "function",
      "constant": true
    },
    {
      "inputs": [
        {
          "internalType": "address",
          "name": "",
          "type": "address"
        }
      ],
      "name": "durationRecord",
      "outputs": [
        {
          "internalType": "uint256",
          "name": "",
          "type": "uint256"
        }
      ],
      "stateMutability": "view",
      "type": "function",
      "constant": true
    },
    {
      "inputs": [
        {
          "internalType": "address",
          "name": "",
          "type": "address"
        },
        {
          "internalType": "address",
          "name": "",
          "type": "address"
        }
      ],
      "name": "leaseAgreementAmount",
      "outputs": [
        {
          "internalType": "uint256",
          "name": "",
          "type": "uint256"
        }
      ],
      "stateMutability": "view",
      "type": "function",
      "constant": true
    },
    {
      "inputs": [
        {
          "internalType": "address",
          "name": "",
          "type": "address"
        },
        {
          "internalType": "address",
          "name": "",
          "type": "address"
        }
      ],
      "name": "leaseAgreementDuration",
      "outputs": [
        {
          "internalType": "uint256",
          "name": "",
          "type": "uint256"
        }
      ],
      "stateMutability": "view",
      "type": "function",
      "constant": true
    },
    {
      "inputs": [
        {
          "internalType": "address",
          "name": "",
          "type": "address"
        },
        {
          "internalType": "address",
          "name": "",
          "type": "address"
        }
      ],
      "name": "leaseAgreementLedger",
      "outputs": [
        {
          "internalType": "bool",
          "name": "",
          "type": "bool"
        }
      ],
      "stateMutability": "view",
      "type": "function",
      "constant": true
    },
    {
      "inputs": [
        {
          "internalType": "address",
          "name": "",
          "type": "address"
        },
        {
          "internalType": "address",
          "name": "",
          "type": "address"
        }
      ],
      "name": "partnerAmount",
      "outputs": [
        {
          "internalType": "uint256",
          "name": "",
          "type": "uint256"
        }
      ],
      "stateMutability": "view",
      "type": "function",
      "constant": true
    },
    {
      "inputs": [
        {
          "internalType": "address",
          "name": "",
          "type": "address"
        },
        {
          "internalType": "address",
          "name": "",
          "type": "address"
        }
      ],
      "name": "partners",
      "outputs": [
        {
          "internalType": "bool",
          "name": "",
          "type": "bool"
        }
      ],
      "stateMutability": "view",
      "type": "function",
      "constant": true
    },
    {
      "inputs": [
        {
          "internalType": "address",
          "name": "",
          "type": "address"
        }
      ],
      "name": "rentAmountsLedger",
      "outputs": [
        {
          "internalType": "uint256",
          "name": "",
          "type": "uint256"
        }
      ],
      "stateMutability": "view",
      "type": "function",
      "constant": true
    },
    {
      "inputs": [
        {
          "internalType": "address",
          "name": "",
          "type": "address"
        }
      ],
      "name": "rentDueDate",
      "outputs": [
        {
          "internalType": "uint256",
          "name": "",
          "type": "uint256"
        }
      ],
      "stateMutability": "view",
      "type": "function",
      "constant": true
    },
    {
      "inputs": [
        {
          "internalType": "address",
          "name": "",
          "type": "address"
        },
        {
          "internalType": "address",
          "name": "",
          "type": "address"
        }
      ],
      "name": "rentLedger",
      "outputs": [
        {
          "internalType": "bool",
          "name": "",
          "type": "bool"
        }
      ],
      "stateMutability": "view",
      "type": "function",
      "constant": true
    },
    {
      "inputs": [
        {
          "internalType": "uint256",
          "name": "",
          "type": "uint256"
        }
      ],
      "name": "tokenState",
      "outputs": [
        {
          "internalType": "bool",
          "name": "",
          "type": "bool"
        }
      ],
      "stateMutability": "view",
      "type": "function",
      "constant": true
    },
    {
      "inputs": [],
      "name": "uniqueIds",
      "outputs": [
        {
          "internalType": "uint256",
          "name": "",
          "type": "uint256"
        }
      ],
      "stateMutability": "view",
      "type": "function",
      "constant": true
    },
    {
      "inputs": [
        {
          "internalType": "address",
          "name": "owner",
          "type": "address"
        }
      ],
      "name": "balanceOf",
      "outputs": [
        {
          "internalType": "uint256",
          "name": "",
          "type": "uint256"
        }
      ],
      "stateMutability": "view",
      "type": "function",
      "constant": true
    },
    {
      "inputs": [
        {
          "internalType": "address",
          "name": "buyer",
          "type": "address"
        },
        {
          "internalType": "uint256",
          "name": "price",
          "type": "uint256"
        },
        {
          "internalType": "uint256",
          "name": "amountToBuy",
          "type": "uint256"
        }
      ],
      "name": "buyMetaHouse",
      "outputs": [],
      "stateMutability": "payable",
      "type": "function",
      "payable": true
    },
    {
      "inputs": [
        {
          "internalType": "uint256",
          "name": "tokenId",
          "type": "uint256"
        }
      ],
      "name": "getTokenState",
      "outputs": [
        {
          "internalType": "bool",
          "name": "",
          "type": "bool"
        }
      ],
      "stateMutability": "view",
      "type": "function",
      "constant": true
    },
    {
      "inputs": [
        {
          "internalType": "address",
          "name": "seller",
          "type": "address"
        },
        {
          "internalType": "address",
          "name": "newOwner",
          "type": "address"
        },
        {
          "internalType": "uint256",
          "name": "tokenID",
          "type": "uint256"
        },
        {
          "internalType": "uint256",
          "name": "amountToSell",
          "type": "uint256"
        }
      ],
      "name": "sellMetaHouse",
      "outputs": [],
      "stateMutability": "nonpayable",
      "type": "function"
    },
    {
      "inputs": [
        {
          "internalType": "address payable",
          "name": "owner",
          "type": "address"
        },
        {
          "internalType": "address",
          "name": "renter",
          "type": "address"
        },
        {
          "internalType": "uint256",
          "name": "tokenID",
          "type": "uint256"
        },
        {
          "internalType": "uint256",
          "name": "duration",
          "type": "uint256"
        },
        {
          "internalType": "uint256",
          "name": "rentAmount",
          "type": "uint256"
        }
      ],
      "name": "rentMetaHouse",
      "outputs": [],
      "stateMutability": "payable",
      "type": "function",
      "payable": true
    },
    {
      "inputs": [
        {
          "internalType": "address",
          "name": "owner",
          "type": "address"
        },
        {
          "internalType": "address",
          "name": "renter",
          "type": "address"
        },
        {
          "internalType": "uint256",
          "name": "tokenID",
          "type": "uint256"
        }
      ],
      "name": "claimRentedHouse",
      "outputs": [],
      "stateMutability": "nonpayable",
      "type": "function"
    },
    {
      "inputs": [
        {
          "internalType": "address payable",
          "name": "owner",
          "type": "address"
        },
        {
          "internalType": "address payable",
          "name": "renter",
          "type": "address"
        },
        {
          "internalType": "uint256",
          "name": "tokenID",
          "type": "uint256"
        },
        {
          "internalType": "uint256",
          "name": "duration",
          "type": "uint256"
        },
        {
          "internalType": "uint256",
          "name": "rentAmount",
          "type": "uint256"
        }
      ],
      "name": "cancelRentDeal",
      "outputs": [],
      "stateMutability": "payable",
      "type": "function",
      "payable": true
    },
    {
      "inputs": [
        {
          "internalType": "address",
          "name": "owner",
          "type": "address"
        },
        {
          "internalType": "address",
          "name": "leasePartner",
          "type": "address"
        },
        {
          "internalType": "uint256",
          "name": "tokenId",
          "type": "uint256"
        },
        {
          "internalType": "uint256",
          "name": "leaseAmount",
          "type": "uint256"
        },
        {
          "internalType": "uint256",
          "name": "leasePeriod",
          "type": "uint256"
        }
      ],
      "name": "setLeaseAgreement",
      "outputs": [],
      "stateMutability": "nonpayable",
      "type": "function"
    },
    {
      "inputs": [
        {
          "internalType": "address payable",
          "name": "owner",
          "type": "address"
        },
        {
          "internalType": "address payable",
          "name": "leasePartner",
          "type": "address"
        },
        {
          "internalType": "uint256",
          "name": "tokenId",
          "type": "uint256"
        },
        {
          "internalType": "uint256",
          "name": "leaseAmount",
          "type": "uint256"
        }
      ],
      "name": "returnLeaseItem",
      "outputs": [],
      "stateMutability": "payable",
      "type": "function",
      "payable": true
    },
    {
      "inputs": [
        {
          "internalType": "address payable",
          "name": "partner1",
          "type": "address"
        },
        {
          "internalType": "address payable",
          "name": "partner2",
          "type": "address"
        },
        {
          "internalType": "uint256",
          "name": "amount",
          "type": "uint256"
        }
      ],
      "name": "buyWithAPartner",
      "outputs": [],
      "stateMutability": "payable",
      "type": "function",
      "payable": true
    },
    {
      "inputs": [
        {
          "internalType": "address",
          "name": "partner1",
          "type": "address"
        },
        {
          "internalType": "address",
          "name": "approvingPartner",
          "type": "address"
        },
        {
          "internalType": "uint256",
          "name": "tokenID",
          "type": "uint256"
        }
      ],
      "name": "approvePartner",
      "outputs": [],
      "stateMutability": "nonpayable",
      "type": "function"
    },
    {
      "inputs": [
        {
          "internalType": "address payable",
          "name": "partner1",
          "type": "address"
        },
        {
          "internalType": "address payable",
          "name": "buyingPartner",
          "type": "address"
        },
        {
          "internalType": "uint256",
          "name": "tokenID",
          "type": "uint256"
        },
        {
          "internalType": "uint256",
          "name": "buyingAmount",
          "type": "uint256"
        }
      ],
      "name": "buyOutPartner",
      "outputs": [],
      "stateMutability": "payable",
      "type": "function",
      "payable": true
    },
    {
      "inputs": [
        {
          "internalType": "address",
          "name": "partner1",
          "type": "address"
        },
        {
          "internalType": "address",
          "name": "sellingPartner",
          "type": "address"
        },
        {
          "internalType": "uint256",
          "name": "amount",
          "type": "uint256"
        },
        {
          "internalType": "uint256",
          "name": "tokenID",
          "type": "uint256"
        },
        {
          "internalType": "address",
          "name": "newPartner",
          "type": "address"
        }
      ],
      "name": "sellPartnership",
      "outputs": [],
      "stateMutability": "nonpayable",
      "type": "function"
    }
  ],
  "bytecode": "0x6080604052600160075534801561001557600080fd5b50336000806101000a81548173ffffffffffffffffffffffffffffffffffffffff021916908373ffffffffffffffffffffffffffffffffffffffff1602179055506131c7806100656000396000f3fe6080604052600436106101cd5760003560e01c806369dc9777116100f7578063aa5f434c11610095578063cd14e0b411610064578063cd14e0b4146106e9578063d6ca148c14610705578063d88cd01314610742578063f45fd0f31461077f576101cd565b8063aa5f434c146105f5578063af85b63714610632578063c2a9a6d51461066f578063cca3e832146106ac576101cd565b806395b6bb51116100d157806395b6bb51146105345780639745cc3d146105505780639e60691d1461058d578063a7a9524a146105b8576101cd565b806369dc97771461049157806370a08231146104ba57806374371b36146104f7576101cd565b80633b816e971161016f578063533d8bf41161013e578063533d8bf4146103f3578063566128671461040f5780635d0341ba1461043857806363c3cb7814610475576101cd565b80633b816e971461032057806348e2b6f51461035d5780634ce767411461039a5780634cf75570146103d7576101cd565b8063222dc80b116101ab578063222dc80b1461025457806329979ef61461027d5780632cf6ebe2146102ba57806338350541146102e3576101cd565b8063041f9e64146101d257806305d954ac146101ee578063094e948c1461022b575b600080fd5b6101ec60048036038101906101e79190612b99565b6107bc565b005b3480156101fa57600080fd5b5061021560048036038101906102109190612c14565b610b1c565b6040516102229190612c6f565b60405180910390f35b34801561023757600080fd5b50610252600480360381019061024d9190612c8a565b610b4b565b005b34801561026057600080fd5b5061027b60048036038101906102769190612cf1565b610ed8565b005b34801561028957600080fd5b506102a4600480360381019061029f9190612c14565b611211565b6040516102b19190612d7b565b60405180910390f35b3480156102c657600080fd5b506102e160048036038101906102dc9190612d96565b611236565b005b3480156102ef57600080fd5b5061030a60048036038101906103059190612de9565b61144b565b6040516103179190612e25565b60405180910390f35b34801561032c57600080fd5b5061034760048036038101906103429190612c14565b61147e565b6040516103549190612d7b565b60405180910390f35b34801561036957600080fd5b50610384600480360381019061037f9190612e40565b6114a3565b6040516103919190612d7b565b60405180910390f35b3480156103a657600080fd5b506103c160048036038101906103bc9190612e40565b6114bb565b6040516103ce9190612c6f565b60405180910390f35b6103f160048036038101906103ec9190612e6d565b6114db565b005b61040d60048036038101906104089190612ec0565b6116d0565b005b34801561041b57600080fd5b5061043660048036038101906104319190612f3b565b61198a565b005b34801561044457600080fd5b5061045f600480360381019061045a9190612e40565b611c79565b60405161046c9190612c6f565b60405180910390f35b61048f600480360381019061048a9190612fb6565b611c99565b005b34801561049d57600080fd5b506104b860048036038101906104b39190612d96565b61211e565b005b3480156104c657600080fd5b506104e160048036038101906104dc9190612e40565b612252565b6040516104ee9190612d7b565b60405180910390f35b34801561050357600080fd5b5061051e60048036038101906105199190612e40565b61229b565b60405161052b9190612d7b565b60405180910390f35b61054e6004803603810190610549919061301d565b6122b3565b005b34801561055c57600080fd5b5061057760048036038101906105729190612de9565b6125d4565b6040516105849190612c6f565b60405180910390f35b34801561059957600080fd5b506105a26125f4565b6040516105af9190612d7b565b60405180910390f35b3480156105c457600080fd5b506105df60048036038101906105da9190612c14565b6125fa565b6040516105ec9190612d7b565b60405180910390f35b34801561060157600080fd5b5061061c60048036038101906106179190612c14565b61261f565b6040516106299190612c6f565b60405180910390f35b34801561063e57600080fd5b5061065960048036038101906106549190612c14565b61264e565b6040516106669190612d7b565b60405180910390f35b34801561067b57600080fd5b5061069660048036038101906106919190612de9565b612673565b6040516106a39190612e25565b60405180910390f35b3480156106b857600080fd5b506106d360048036038101906106ce9190612e40565b6126a6565b6040516106e09190612d7b565b60405180910390f35b61070360048036038101906106fe9190612fb6565b6126be565b005b34801561071157600080fd5b5061072c60048036038101906107279190612e40565b612a51565b6040516107399190612d7b565b60405180910390f35b34801561074e57600080fd5b5061076960048036038101906107649190612c14565b612a69565b6040516107769190612c6f565b60405180910390f35b34801561078b57600080fd5b506107a660048036038101906107a19190612de9565b612a98565b6040516107b39190612c6f565b60405180910390f35b8473ffffffffffffffffffffffffffffffffffffffff166001600085815260200190815260200160002060009054906101000a900473ffffffffffffffffffffffffffffffffffffffff1673ffffffffffffffffffffffffffffffffffffffff161461082757600080fd5b6001600260008773ffffffffffffffffffffffffffffffffffffffff1673ffffffffffffffffffffffffffffffffffffffff16815260200190815260200160002054101561087457600080fd5b600115156005600085815260200190815260200160002060009054906101000a900460ff161515036108a557600080fd5b8373ffffffffffffffffffffffffffffffffffffffff163373ffffffffffffffffffffffffffffffffffffffff16146108dd57600080fd5b60008081846108ec919061309f565b9050600084846108fc91906130d3565b905034811461090a57600080fd5b3490508773ffffffffffffffffffffffffffffffffffffffff166108fc829081150290604051600060405180830381858888f19350505050158015610953573d6000803e3d6000fd5b50866001600088815260200190815260200160002060006101000a81548173ffffffffffffffffffffffffffffffffffffffff021916908373ffffffffffffffffffffffffffffffffffffffff1602179055506001600960008973ffffffffffffffffffffffffffffffffffffffff1673ffffffffffffffffffffffffffffffffffffffff16815260200190815260200160002060008a73ffffffffffffffffffffffffffffffffffffffff1673ffffffffffffffffffffffffffffffffffffffff16815260200190815260200160002060006101000a81548160ff02191690831515021790555080600a60008973ffffffffffffffffffffffffffffffffffffffff1673ffffffffffffffffffffffffffffffffffffffff1681526020019081526020016000208190555084600b60008973ffffffffffffffffffffffffffffffffffffffff1673ffffffffffffffffffffffffffffffffffffffff168152602001908152602001600020819055508142610acf919061309f565b600860008973ffffffffffffffffffffffffffffffffffffffff1673ffffffffffffffffffffffffffffffffffffffff168152602001908152602001600020819055505050505050505050565b60096020528160005260406000206020528060005260406000206000915091509054906101000a900460ff1681565b3373ffffffffffffffffffffffffffffffffffffffff168473ffffffffffffffffffffffffffffffffffffffff1614610b8357600080fd5b8373ffffffffffffffffffffffffffffffffffffffff166001600084815260200190815260200160002060009054906101000a900473ffffffffffffffffffffffffffffffffffffffff1673ffffffffffffffffffffffffffffffffffffffff1614610bee57600080fd5b80600260008673ffffffffffffffffffffffffffffffffffffffff1673ffffffffffffffffffffffffffffffffffffffff1681526020019081526020016000205410158015610c3e575060008114155b610c4757600080fd5b60011515601060008673ffffffffffffffffffffffffffffffffffffffff1673ffffffffffffffffffffffffffffffffffffffff16815260200190815260200160002060009054906101000a900460ff16151503610dd357600115156005600084815260200190815260200160002060009054906101000a900460ff16151503610cd057600080fd5b826001600084815260200190815260200160002060006101000a81548173ffffffffffffffffffffffffffffffffffffffff021916908373ffffffffffffffffffffffffffffffffffffffff16021790555080600260008573ffffffffffffffffffffffffffffffffffffffff1673ffffffffffffffffffffffffffffffffffffffff1681526020019081526020016000206000828254610d71919061309f565b9250508190555080600260008673ffffffffffffffffffffffffffffffffffffffff1673ffffffffffffffffffffffffffffffffffffffff1681526020019081526020016000206000828254610dc79190613115565b92505081905550610ed2565b826001600084815260200190815260200160002060006101000a81548173ffffffffffffffffffffffffffffffffffffffff021916908373ffffffffffffffffffffffffffffffffffffffff16021790555080600260008573ffffffffffffffffffffffffffffffffffffffff1673ffffffffffffffffffffffffffffffffffffffff1681526020019081526020016000206000828254610e74919061309f565b9250508190555080600260008673ffffffffffffffffffffffffffffffffffffffff1673ffffffffffffffffffffffffffffffffffffffff1681526020019081526020016000206000828254610eca9190613115565b925050819055505b50505050565b8473ffffffffffffffffffffffffffffffffffffffff166001600085815260200190815260200160002060009054906101000a900473ffffffffffffffffffffffffffffffffffffffff1673ffffffffffffffffffffffffffffffffffffffff1614610f4357600080fd5b8373ffffffffffffffffffffffffffffffffffffffff163373ffffffffffffffffffffffffffffffffffffffff1614610f7b57600080fd5b6001600260008773ffffffffffffffffffffffffffffffffffffffff1673ffffffffffffffffffffffffffffffffffffffff168152602001908152602001600020541015610fc857600080fd5b600115156005600085815260200190815260200160002060009054906101000a900460ff16151503610ff957600080fd5b6000808242611008919061309f565b611012919061309f565b90506001600c60008873ffffffffffffffffffffffffffffffffffffffff1673ffffffffffffffffffffffffffffffffffffffff16815260200190815260200160002060008773ffffffffffffffffffffffffffffffffffffffff1673ffffffffffffffffffffffffffffffffffffffff16815260200190815260200160002060006101000a81548160ff0219169083151502179055506000836110b6919061309f565b600d60008873ffffffffffffffffffffffffffffffffffffffff1673ffffffffffffffffffffffffffffffffffffffff16815260200190815260200160002060008773ffffffffffffffffffffffffffffffffffffffff1673ffffffffffffffffffffffffffffffffffffffff1681526020019081526020016000208190555080600e60008873ffffffffffffffffffffffffffffffffffffffff1673ffffffffffffffffffffffffffffffffffffffff16815260200190815260200160002060008773ffffffffffffffffffffffffffffffffffffffff1673ffffffffffffffffffffffffffffffffffffffff16815260200190815260200160002081905550846001600086815260200190815260200160002060006101000a81548173ffffffffffffffffffffffffffffffffffffffff021916908373ffffffffffffffffffffffffffffffffffffffff160217905550505050505050565b600e602052816000526040600020602052806000526040600020600091509150505481565b600860008373ffffffffffffffffffffffffffffffffffffffff1673ffffffffffffffffffffffffffffffffffffffff1681526020019081526020016000205442101561128257600080fd5b60011515600960008473ffffffffffffffffffffffffffffffffffffffff1673ffffffffffffffffffffffffffffffffffffffff16815260200190815260200160002060008573ffffffffffffffffffffffffffffffffffffffff1673ffffffffffffffffffffffffffffffffffffffff16815260200190815260200160002060009054906101000a900460ff1615151461131c57600080fd5b6000600960008473ffffffffffffffffffffffffffffffffffffffff1673ffffffffffffffffffffffffffffffffffffffff16815260200190815260200160002060008573ffffffffffffffffffffffffffffffffffffffff1673ffffffffffffffffffffffffffffffffffffffff16815260200190815260200160002060006101000a81548160ff021916908315150217905550826001600083815260200190815260200160002060006101000a81548173ffffffffffffffffffffffffffffffffffffffff021916908373ffffffffffffffffffffffffffffffffffffffff160217905550600860008373ffffffffffffffffffffffffffffffffffffffff1673ffffffffffffffffffffffffffffffffffffffff16815260200190815260200160002060009055505050565b60016020528060005260406000206000915054906101000a900473ffffffffffffffffffffffffffffffffffffffff1681565b6011602052816000526040600020602052806000526040600020600091509150505481565b60086020528060005260406000206000915090505481565b60106020528060005260406000206000915054906101000a900460ff1681565b8173ffffffffffffffffffffffffffffffffffffffff163373ffffffffffffffffffffffffffffffffffffffff161461151357600080fd5b3490506001600f60008573ffffffffffffffffffffffffffffffffffffffff1673ffffffffffffffffffffffffffffffffffffffff16815260200190815260200160002060008473ffffffffffffffffffffffffffffffffffffffff1673ffffffffffffffffffffffffffffffffffffffff16815260200190815260200160002060006101000a81548160ff02191690831515021790555080601160008573ffffffffffffffffffffffffffffffffffffffff1673ffffffffffffffffffffffffffffffffffffffff16815260200190815260200160002060008473ffffffffffffffffffffffffffffffffffffffff1673ffffffffffffffffffffffffffffffffffffffff168152602001908152602001600020819055506001601060008573ffffffffffffffffffffffffffffffffffffffff1673ffffffffffffffffffffffffffffffffffffffff16815260200190815260200160002060006101000a81548160ff0219169083151502179055508273ffffffffffffffffffffffffffffffffffffffff166108fc829081150290604051600060405180830381858888f193505050501580156116ca573d6000803e3d6000fd5b50505050565b600860008573ffffffffffffffffffffffffffffffffffffffff1673ffffffffffffffffffffffffffffffffffffffff16815260200190815260200160002054421061171b57600080fd5b60011515600960008673ffffffffffffffffffffffffffffffffffffffff1673ffffffffffffffffffffffffffffffffffffffff16815260200190815260200160002060008773ffffffffffffffffffffffffffffffffffffffff1673ffffffffffffffffffffffffffffffffffffffff16815260200190815260200160002060009054906101000a900460ff161515146117b557600080fd5b600a60008573ffffffffffffffffffffffffffffffffffffffff1673ffffffffffffffffffffffffffffffffffffffff16815260200190815260200160002054811461180057600080fd5b81600b60008673ffffffffffffffffffffffffffffffffffffffff1673ffffffffffffffffffffffffffffffffffffffff168152602001908152602001600020541461184b57600080fd5b8473ffffffffffffffffffffffffffffffffffffffff163373ffffffffffffffffffffffffffffffffffffffff161461188357600080fd5b6000429050600081600860008873ffffffffffffffffffffffffffffffffffffffff1673ffffffffffffffffffffffffffffffffffffffff168152602001908152602001600020546118d59190613115565b9050600084826118e591906130d3565b90508673ffffffffffffffffffffffffffffffffffffffff166108fc829081150290604051600060405180830381858888f1935050505015801561192d573d6000803e3d6000fd5b50876001600088815260200190815260200160002060006101000a81548173ffffffffffffffffffffffffffffffffffffffff021916908373ffffffffffffffffffffffffffffffffffffffff1602179055505050505050505050565b8373ffffffffffffffffffffffffffffffffffffffff163373ffffffffffffffffffffffffffffffffffffffff16146119c257600080fd5b600015156005600084815260200190815260200160002060009054906101000a900460ff161515146119f357600080fd5b60011515601260008773ffffffffffffffffffffffffffffffffffffffff1673ffffffffffffffffffffffffffffffffffffffff16815260200190815260200160002060009054906101000a900460ff16151514611a5057600080fd5b6001600f60008773ffffffffffffffffffffffffffffffffffffffff1673ffffffffffffffffffffffffffffffffffffffff16815260200190815260200160002060008373ffffffffffffffffffffffffffffffffffffffff1673ffffffffffffffffffffffffffffffffffffffff16815260200190815260200160002060006101000a81548160ff02191690831515021790555082601160008773ffffffffffffffffffffffffffffffffffffffff1673ffffffffffffffffffffffffffffffffffffffff16815260200190815260200160002060008373ffffffffffffffffffffffffffffffffffffffff1673ffffffffffffffffffffffffffffffffffffffff16815260200190815260200160002081905550600f60008673ffffffffffffffffffffffffffffffffffffffff1673ffffffffffffffffffffffffffffffffffffffff16815260200190815260200160002060008573ffffffffffffffffffffffffffffffffffffffff1673ffffffffffffffffffffffffffffffffffffffff16815260200190815260200160002060006101000a81549060ff0219169055601160008673ffffffffffffffffffffffffffffffffffffffff1673ffffffffffffffffffffffffffffffffffffffff16815260200190815260200160002060008573ffffffffffffffffffffffffffffffffffffffff1673ffffffffffffffffffffffffffffffffffffffff168152602001908152602001600020600090555050505050565b60126020528060005260406000206000915054906101000a900460ff1681565b600e60008573ffffffffffffffffffffffffffffffffffffffff1673ffffffffffffffffffffffffffffffffffffffff16815260200190815260200160002060008473ffffffffffffffffffffffffffffffffffffffff1673ffffffffffffffffffffffffffffffffffffffff16815260200190815260200160002054421015611d2257600080fd5b600d60008573ffffffffffffffffffffffffffffffffffffffff1673ffffffffffffffffffffffffffffffffffffffff16815260200190815260200160002060008473ffffffffffffffffffffffffffffffffffffffff1673ffffffffffffffffffffffffffffffffffffffff168152602001908152602001600020548114611daa57600080fd5b8273ffffffffffffffffffffffffffffffffffffffff163373ffffffffffffffffffffffffffffffffffffffff1614611de257600080fd5b8273ffffffffffffffffffffffffffffffffffffffff166001600084815260200190815260200160002060009054906101000a900473ffffffffffffffffffffffffffffffffffffffff1673ffffffffffffffffffffffffffffffffffffffff1614611e4d57600080fd5b60011515600c60008673ffffffffffffffffffffffffffffffffffffffff1673ffffffffffffffffffffffffffffffffffffffff16815260200190815260200160002060008573ffffffffffffffffffffffffffffffffffffffff1673ffffffffffffffffffffffffffffffffffffffff16815260200190815260200160002060009054906101000a900460ff16151514611ee757600080fd5b348114611ef357600080fd5b8373ffffffffffffffffffffffffffffffffffffffff166108fc829081150290604051600060405180830381858888f19350505050158015611f39573d6000803e3d6000fd5b50836001600084815260200190815260200160002060006101000a81548173ffffffffffffffffffffffffffffffffffffffff021916908373ffffffffffffffffffffffffffffffffffffffff160217905550600d60008573ffffffffffffffffffffffffffffffffffffffff1673ffffffffffffffffffffffffffffffffffffffff16815260200190815260200160002060008473ffffffffffffffffffffffffffffffffffffffff1673ffffffffffffffffffffffffffffffffffffffff16815260200190815260200160002060009055600e60008573ffffffffffffffffffffffffffffffffffffffff1673ffffffffffffffffffffffffffffffffffffffff16815260200190815260200160002060008473ffffffffffffffffffffffffffffffffffffffff1673ffffffffffffffffffffffffffffffffffffffff16815260200190815260200160002060009055600c60008573ffffffffffffffffffffffffffffffffffffffff1673ffffffffffffffffffffffffffffffffffffffff16815260200190815260200160002060008473ffffffffffffffffffffffffffffffffffffffff1673ffffffffffffffffffffffffffffffffffffffff16815260200190815260200160002060006101000a81549060ff021916905550505050565b60011515600f60008573ffffffffffffffffffffffffffffffffffffffff1673ffffffffffffffffffffffffffffffffffffffff16815260200190815260200160002060008473ffffffffffffffffffffffffffffffffffffffff1673ffffffffffffffffffffffffffffffffffffffff16815260200190815260200160002060009054906101000a900460ff161515146121b857600080fd5b600115156005600083815260200190815260200160002060009054906101000a900460ff161515146121e957600080fd5b8173ffffffffffffffffffffffffffffffffffffffff163373ffffffffffffffffffffffffffffffffffffffff161461222157600080fd5b60006005600083815260200190815260200160002060006101000a81548160ff021916908315150217905550505050565b6000600260008373ffffffffffffffffffffffffffffffffffffffff1673ffffffffffffffffffffffffffffffffffffffff168152602001908152602001600020549050919050565b600b6020528060005260406000206000915090505481565b3482146122bf57600080fd5b60075481146122cd57600080fd5b60011515601060008573ffffffffffffffffffffffffffffffffffffffff1673ffffffffffffffffffffffffffffffffffffffff16815260200190815260200160002060009054906101000a900460ff161515036124995760008054906101000a900473ffffffffffffffffffffffffffffffffffffffff1673ffffffffffffffffffffffffffffffffffffffff166108fc839081150290604051600060405180830381858888f1935050505015801561238b573d6000803e3d6000fd5b5080600260008573ffffffffffffffffffffffffffffffffffffffff1673ffffffffffffffffffffffffffffffffffffffff16815260200190815260200160002060008282546123db919061309f565b92505081905550826001600060016006546123f6919061309f565b815260200190815260200160002060006101000a81548173ffffffffffffffffffffffffffffffffffffffff021916908373ffffffffffffffffffffffffffffffffffffffff1602179055506001600560006001600654612457919061309f565b815260200190815260200160002060006101000a81548160ff0219169083151502179055506006600081548092919061248f90613149565b91905055506125cf565b60008054906101000a900473ffffffffffffffffffffffffffffffffffffffff1673ffffffffffffffffffffffffffffffffffffffff166108fc839081150290604051600060405180830381858888f193505050501580156124ff573d6000803e3d6000fd5b5080600260008573ffffffffffffffffffffffffffffffffffffffff1673ffffffffffffffffffffffffffffffffffffffff168152602001908152602001600020600082825461254f919061309f565b925050819055508260016000600160065461256a919061309f565b815260200190815260200160002060006101000a81548173ffffffffffffffffffffffffffffffffffffffff021916908373ffffffffffffffffffffffffffffffffffffffff160217905550600660008154809291906125c990613149565b91905055505b505050565b60056020528060005260406000206000915054906101000a900460ff1681565b60065481565b6003602052816000526040600020602052806000526040600020600091509150505481565b600f6020528160005260406000206020528060005260406000206000915091509054906101000a900460ff1681565b600d602052816000526040600020602052806000526040600020600091509150505481565b60046020528060005260406000206000915054906101000a900473ffffffffffffffffffffffffffffffffffffffff1681565b60026020528060005260406000206000915090505481565b60011515600f60008673ffffffffffffffffffffffffffffffffffffffff1673ffffffffffffffffffffffffffffffffffffffff16815260200190815260200160002060008573ffffffffffffffffffffffffffffffffffffffff1673ffffffffffffffffffffffffffffffffffffffff16815260200190815260200160002060009054906101000a900460ff1615151461275857600080fd5b600015156005600084815260200190815260200160002060009054906101000a900460ff1615151461278957600080fd5b60011515601260008673ffffffffffffffffffffffffffffffffffffffff1673ffffffffffffffffffffffffffffffffffffffff16815260200190815260200160002060009054906101000a900460ff161515146127e657600080fd5b80601160008673ffffffffffffffffffffffffffffffffffffffff1673ffffffffffffffffffffffffffffffffffffffff16815260200190815260200160002060008573ffffffffffffffffffffffffffffffffffffffff1673ffffffffffffffffffffffffffffffffffffffff168152602001908152602001600020541461286e57600080fd5b8273ffffffffffffffffffffffffffffffffffffffff163373ffffffffffffffffffffffffffffffffffffffff16146128a657600080fd5b826001600084815260200190815260200160002060006101000a81548173ffffffffffffffffffffffffffffffffffffffff021916908373ffffffffffffffffffffffffffffffffffffffff1602179055508373ffffffffffffffffffffffffffffffffffffffff166108fc829081150290604051600060405180830381858888f1935050505015801561293e573d6000803e3d6000fd5b50600f60008573ffffffffffffffffffffffffffffffffffffffff1673ffffffffffffffffffffffffffffffffffffffff16815260200190815260200160002060008473ffffffffffffffffffffffffffffffffffffffff1673ffffffffffffffffffffffffffffffffffffffff16815260200190815260200160002060006101000a81549060ff0219169055601160008573ffffffffffffffffffffffffffffffffffffffff1673ffffffffffffffffffffffffffffffffffffffff16815260200190815260200160002060008473ffffffffffffffffffffffffffffffffffffffff1673ffffffffffffffffffffffffffffffffffffffff1681526020019081526020016000206000905550505050565b600a6020528060005260406000206000915090505481565b600c6020528160005260406000206020528060005260406000206000915091509054906101000a900460ff1681565b60006005600083815260200190815260200160002060009054906101000a900460ff169050919050565b600080fd5b600073ffffffffffffffffffffffffffffffffffffffff82169050919050565b6000612af282612ac7565b9050919050565b612b0281612ae7565b8114612b0d57600080fd5b50565b600081359050612b1f81612af9565b92915050565b6000612b3082612ac7565b9050919050565b612b4081612b25565b8114612b4b57600080fd5b50565b600081359050612b5d81612b37565b92915050565b6000819050919050565b612b7681612b63565b8114612b8157600080fd5b50565b600081359050612b9381612b6d565b92915050565b600080600080600060a08688031215612bb557612bb4612ac2565b5b6000612bc388828901612b10565b9550506020612bd488828901612b4e565b9450506040612be588828901612b84565b9350506060612bf688828901612b84565b9250506080612c0788828901612b84565b9150509295509295909350565b60008060408385031215612c2b57612c2a612ac2565b5b6000612c3985828601612b4e565b9250506020612c4a85828601612b4e565b9150509250929050565b60008115159050919050565b612c6981612c54565b82525050565b6000602082019050612c846000830184612c60565b92915050565b60008060008060808587031215612ca457612ca3612ac2565b5b6000612cb287828801612b4e565b9450506020612cc387828801612b4e565b9350506040612cd487828801612b84565b9250506060612ce587828801612b84565b91505092959194509250565b600080600080600060a08688031215612d0d57612d0c612ac2565b5b6000612d1b88828901612b4e565b9550506020612d2c88828901612b4e565b9450506040612d3d88828901612b84565b9350506060612d4e88828901612b84565b9250506080612d5f88828901612b84565b9150509295509295909350565b612d7581612b63565b82525050565b6000602082019050612d906000830184612d6c565b92915050565b600080600060608486031215612daf57612dae612ac2565b5b6000612dbd86828701612b4e565b9350506020612dce86828701612b4e565b9250506040612ddf86828701612b84565b9150509250925092565b600060208284031215612dff57612dfe612ac2565b5b6000612e0d84828501612b84565b91505092915050565b612e1f81612b25565b82525050565b6000602082019050612e3a6000830184612e16565b92915050565b600060208284031215612e5657612e55612ac2565b5b6000612e6484828501612b4e565b91505092915050565b600080600060608486031215612e8657612e85612ac2565b5b6000612e9486828701612b10565b9350506020612ea586828701612b10565b9250506040612eb686828701612b84565b9150509250925092565b600080600080600060a08688031215612edc57612edb612ac2565b5b6000612eea88828901612b10565b9550506020612efb88828901612b10565b9450506040612f0c88828901612b84565b9350506060612f1d88828901612b84565b9250506080612f2e88828901612b84565b9150509295509295909350565b600080600080600060a08688031215612f5757612f56612ac2565b5b6000612f6588828901612b4e565b9550506020612f7688828901612b4e565b9450506040612f8788828901612b84565b9350506060612f9888828901612b84565b9250506080612fa988828901612b4e565b9150509295509295909350565b60008060008060808587031215612fd057612fcf612ac2565b5b6000612fde87828801612b10565b9450506020612fef87828801612b10565b935050604061300087828801612b84565b925050606061301187828801612b84565b91505092959194509250565b60008060006060848603121561303657613035612ac2565b5b600061304486828701612b4e565b935050602061305586828701612b84565b925050604061306686828701612b84565b9150509250925092565b7f4e487b7100000000000000000000000000000000000000000000000000000000600052601160045260246000fd5b60006130aa82612b63565b91506130b583612b63565b92508282019050808211156130cd576130cc613070565b5b92915050565b60006130de82612b63565b91506130e983612b63565b92508282026130f781612b63565b9150828204841483151761310e5761310d613070565b5b5092915050565b600061312082612b63565b915061312b83612b63565b925082820390508181111561314357613142613070565b5b92915050565b600061315482612b63565b91507fffffffffffffffffffffffffffffffffffffffffffffffffffffffffffffffff820361318657613185613070565b5b60018201905091905056fea2646970667358221220eae71b637ada9c2c0bb55abfa24011c3568a9145e1ee07f13d0b999ab1d83f3964736f6c63430008110033",
  "immutableReferences": {},
  "source": "pragma solidity ^0.8.0; //SPDX-License-Identifier: UNLICENSED\n\ncontract metaBnb {\n\n    address payable metaEstateAdmin;\n\n    constructor() {\n       metaEstateAdmin = payable(msg.sender);\n    }\n\n    event transfer(address indexed from, address indexed to, uint indexed tokenId);\n    event _approve(address indexed owner, address indexed spender, uint indexed tokenId);\n    event _allApproval(address indexed owner, address indexed operator, uint indexed tokenId);\n\n    mapping(uint => address) public _ownerOf;\n    mapping(address => uint) public _balanceOf;\n    mapping(address => mapping(address => uint)) public _approvalForAll;\n    mapping(uint => address) public _approvals;\n    mapping(uint => bool) public tokenState;\n\n    uint public uniqueIds;\n    uint maxBuyperOnce = 1;\n\n    // function ownerOf(uint tokenId) external view  returns(address owner) {\n    //     require(owner != address(0));\n    //     return _ownerOf[tokenId];\n    // }\n\n    function balanceOf(address owner) external view  returns(uint) {\n        return _balanceOf[owner];\n    }\n\n    function buyMetaHouse(address buyer, uint price, uint amountToBuy) external payable {\n        require(price == msg.value);\n        require(amountToBuy == maxBuyperOnce);\n        if(coOwner[buyer] == true) {\n            metaEstateAdmin.transfer(price);\n            _balanceOf[buyer] += amountToBuy;\n            _ownerOf[uniqueIds + 1] = buyer;\n            tokenState[uniqueIds + 1] = true;\n            uniqueIds ++;            \n        } else {\n            metaEstateAdmin.transfer(price);\n            _balanceOf[buyer] += amountToBuy;\n            _ownerOf[uniqueIds + 1] = buyer;\n            uniqueIds ++;\n        }\n    }\n\n    function getApprovalState(address investor) private view returns(bool) {\n        return approvals[investor];\n    }\n\n     function getTokenState(uint tokenId) external view returns(bool) {\n        return tokenState[tokenId];\n    }\n\n\n    function sellMetaHouse(address seller, address newOwner, uint tokenID, uint amountToSell) external {\n        require(seller == msg.sender);\n        require(_ownerOf[tokenID] == seller);\n        require(_balanceOf[seller] >= amountToSell && amountToSell != 0);\n         if(coOwner[seller] == true) {\n            require(tokenState[tokenID] != true);\n            _ownerOf[tokenID] = newOwner;\n            _balanceOf[newOwner] += amountToSell;\n            _balanceOf[seller] -= amountToSell;\n         } else {\n             _ownerOf[tokenID] = newOwner;\n            _balanceOf[newOwner] += amountToSell;\n            _balanceOf[seller] -= amountToSell;\n\n         }\n    }\n\n    mapping(address => uint) public rentDueDate;\n    mapping(address => mapping(address =>bool)) public rentLedger;\n    mapping(address => uint) public rentAmountsLedger;\n    mapping(address => uint) public durationRecord;\n\n    function rentMetaHouse(address payable owner, address renter, uint tokenID, uint duration, uint rentAmount) payable external {\n        require(_ownerOf[tokenID] == owner);\n        require(_balanceOf[owner] >= 1);\n        require(tokenState[tokenID] != true);\n        require(msg.sender == renter);\n        uint time = 0 seconds; \n        uint durations = duration + time;    \n        uint totalPayment = rentAmount * duration;\n        require(totalPayment == msg.value);\n        totalPayment = msg.value;\n        owner.transfer(totalPayment);\n        _ownerOf[tokenID] = renter;\n        rentLedger[renter][owner] = true;\n        rentAmountsLedger[renter] = totalPayment;\n        durationRecord[renter] = duration;\n        rentDueDate[renter] = block.timestamp + durations;\n    }\n\n    function claimRentedHouse(address owner, address renter, uint tokenID) external {\n        require(block.timestamp >= rentDueDate[renter]);\n        require(rentLedger[renter][owner] == true);\n        rentLedger[renter][owner] = false;\n        _ownerOf[tokenID] = owner;\n        delete rentDueDate[renter];\n    } \n\n    function cancelRentDeal(address payable owner, address payable renter, uint tokenID, uint duration,uint rentAmount) external payable {\n        require(block.timestamp < rentDueDate[renter]);\n        require(rentLedger[renter][owner] == true);\n        require(rentAmount == rentAmountsLedger[renter]);\n        require(durationRecord[renter] == duration);\n        require(msg.sender == owner);\n        uint currentTime = block.timestamp;\n        uint awaitingTime = rentDueDate[renter] - currentTime;\n        uint cancelAmount = awaitingTime * duration;\n        renter.transfer(cancelAmount);\n        _ownerOf[tokenID] = owner;\n    }\n\n    mapping(address => mapping(address => bool)) public leaseAgreementLedger;\n    mapping(address => mapping(address => uint)) public leaseAgreementAmount;\n    mapping(address => mapping(address => uint)) public leaseAgreementDuration;\n\n\n// 0x4B20993Bc481177ec7E8f571ceCaE8A9e22C02db leaser\n// 0xAb8483F64d9C6d1EcF9b849Ae677dD3315835cb2 owner\n    \n    function setLeaseAgreement(address owner, address leasePartner, uint tokenId, uint leaseAmount, uint leasePeriod) external {\n        require(_ownerOf[tokenId] == owner);\n        require(msg.sender == leasePartner);\n        require(_balanceOf[owner] >= 1);\n        require(tokenState[tokenId] != true);\n        uint leaseDuration = block.timestamp + leasePeriod + 0 minutes;\n        leaseAgreementLedger[owner][leasePartner] = true;\n        leaseAgreementAmount[owner][leasePartner] = leaseAmount + 0 wei;\n        leaseAgreementDuration[owner][leasePartner] = leaseDuration;\n        _ownerOf[tokenId] = leasePartner;\n    } \n\n    function returnLeaseItem(address payable owner, address payable leasePartner, uint tokenId, uint leaseAmount) payable external {\n        require(block.timestamp >= leaseAgreementDuration[owner][leasePartner]);\n        require(leaseAmount == leaseAgreementAmount[owner][leasePartner]);\n        require(msg.sender == leasePartner);\n        require(_ownerOf[tokenId] == leasePartner);\n        require(leaseAgreementLedger[owner][leasePartner] == true);\n        require(leaseAmount == msg.value);\n        owner.transfer(leaseAmount);\n        _ownerOf[tokenId] = owner;\n        delete leaseAgreementAmount[owner][leasePartner];\n        delete leaseAgreementDuration[owner][leasePartner];\n        delete leaseAgreementLedger[owner][leasePartner];\n    }\n\n    enum partnerToken {\n        coOwn\n    }\n\n    mapping(address => mapping(address => bool)) public partners;\n    mapping(address => bool) public coOwner;\n    mapping(address => mapping(address => uint)) public partnerAmount;\n    // mapping(address => mapping(address => uint)) public partnerLedger;\n\n    function buyWithAPartner(address payable partner1, address payable partner2, uint amount) payable external {\n        require(msg.sender == partner2);\n        amount = msg.value;\n        partners[partner1][partner2] = true;\n        partnerAmount[partner1][partner2] = amount;\n        coOwner[partner1] = true;\n        partner1.transfer(amount);\n    }\n    // 0x4B20993Bc481177ec7E8f571ceCaE8A9e22C02db partner1\n// 0xAb8483F64d9C6d1EcF9b849Ae677dD3315835cb2 partner2\n\n    mapping(address => bool) public approvals;\n    function approvePartner(address partner1, address approvingPartner, uint tokenID) external {\n        require(partners[partner1][approvingPartner] == true);\n        require(tokenState[tokenID] == true);\n        require(msg.sender == approvingPartner);\n        tokenState[tokenID] = false;\n    }\n\n    function buyOutPartner(address payable partner1, address payable buyingPartner, uint tokenID, uint buyingAmount) payable external {\n        require(partners[partner1][buyingPartner] == true);\n        require(tokenState[tokenID] == false);\n        require(approvals[partner1] == true);\n        require(partnerAmount[partner1][buyingPartner] == buyingAmount);\n        require(msg.sender == buyingPartner);\n        _ownerOf[tokenID] = buyingPartner;\n        partner1.transfer(buyingAmount);\n        delete partners[partner1][buyingPartner];\n        delete partnerAmount[partner1][buyingPartner];\n    }\n\n    function sellPartnership(address partner1, address sellingPartner, uint amount, uint tokenID, address newPartner) external {\n        require(msg.sender == sellingPartner);\n        require(tokenState[tokenID] == false);\n        require(approvals[partner1] == true);\n        partners[partner1][newPartner] = true; \n        partnerAmount[partner1][newPartner] = amount;      \n        delete partners[partner1][sellingPartner];\n        delete partnerAmount[partner1][sellingPartner];\n    }\n\n}\n",
  "sourcePath": "/home/eibrahim/Desktop/hayorgithub/metaBnb-smart-contract/contracts/metaBnb.sol",
  "compiler": {
    "name": "solc",
    "version": "0.8.17+commit.8df45f5f.Emscripten.clang"
  },
  "schemaVersion": "3.4.11",
  "updatedAt": "2022-12-25T09:47:32.222Z",
  "networkType": "ethereum",
  "devdoc": {
    "kind": "dev",
    "methods": {},
    "version": 1
  },
  "userdoc": {
    "kind": "user",
    "methods": {},
    "version": 1
  }
}